{
  "_format": "hh-sol-artifact-1",
  "contractName": "NFTMarketPlace",
  "sourceName": "contracts/NFTMarketPlace.sol",
  "abi": [
    {
      "inputs": [],
      "stateMutability": "nonpayable",
      "type": "constructor"
    },
    {
      "inputs": [
        {
          "internalType": "address",
          "name": "sender",
          "type": "address"
        },
        {
          "internalType": "uint256",
          "name": "tokenId",
          "type": "uint256"
        },
        {
          "internalType": "address",
          "name": "owner",
          "type": "address"
        }
      ],
      "name": "ERC721IncorrectOwner",
      "type": "error"
    },
    {
      "inputs": [
        {
          "internalType": "address",
          "name": "operator",
          "type": "address"
        },
        {
          "internalType": "uint256",
          "name": "tokenId",
          "type": "uint256"
        }
      ],
      "name": "ERC721InsufficientApproval",
      "type": "error"
    },
    {
      "inputs": [
        {
          "internalType": "address",
          "name": "approver",
          "type": "address"
        }
      ],
      "name": "ERC721InvalidApprover",
      "type": "error"
    },
    {
      "inputs": [
        {
          "internalType": "address",
          "name": "operator",
          "type": "address"
        }
      ],
      "name": "ERC721InvalidOperator",
      "type": "error"
    },
    {
      "inputs": [
        {
          "internalType": "address",
          "name": "owner",
          "type": "address"
        }
      ],
      "name": "ERC721InvalidOwner",
      "type": "error"
    },
    {
      "inputs": [
        {
          "internalType": "address",
          "name": "receiver",
          "type": "address"
        }
      ],
      "name": "ERC721InvalidReceiver",
      "type": "error"
    },
    {
      "inputs": [
        {
          "internalType": "address",
          "name": "sender",
          "type": "address"
        }
      ],
      "name": "ERC721InvalidSender",
      "type": "error"
    },
    {
      "inputs": [
        {
          "internalType": "uint256",
          "name": "tokenId",
          "type": "uint256"
        }
      ],
      "name": "ERC721NonexistentToken",
      "type": "error"
    },
    {
      "anonymous": false,
      "inputs": [
        {
          "indexed": true,
          "internalType": "address",
          "name": "owner",
          "type": "address"
        },
        {
          "indexed": true,
          "internalType": "address",
          "name": "approved",
          "type": "address"
        },
        {
          "indexed": true,
          "internalType": "uint256",
          "name": "tokenId",
          "type": "uint256"
        }
      ],
      "name": "Approval",
      "type": "event"
    },
    {
      "anonymous": false,
      "inputs": [
        {
          "indexed": true,
          "internalType": "address",
          "name": "owner",
          "type": "address"
        },
        {
          "indexed": true,
          "internalType": "address",
          "name": "operator",
          "type": "address"
        },
        {
          "indexed": false,
          "internalType": "bool",
          "name": "approved",
          "type": "bool"
        }
      ],
      "name": "ApprovalForAll",
      "type": "event"
    },
    {
      "anonymous": false,
      "inputs": [
        {
          "indexed": true,
          "internalType": "uint256",
          "name": "tokenId",
          "type": "uint256"
        },
        {
          "indexed": true,
          "internalType": "address",
          "name": "seller",
          "type": "address"
        },
        {
          "indexed": true,
          "internalType": "address",
          "name": "winner",
          "type": "address"
        },
        {
          "indexed": false,
          "internalType": "uint256",
          "name": "amount",
          "type": "uint256"
        }
      ],
      "name": "AuctionEnded",
      "type": "event"
    },
    {
      "anonymous": false,
      "inputs": [
        {
          "indexed": true,
          "internalType": "uint256",
          "name": "tokenId",
          "type": "uint256"
        },
        {
          "indexed": false,
          "internalType": "address",
          "name": "seller",
          "type": "address"
        },
        {
          "indexed": false,
          "internalType": "uint256",
          "name": "startPrice",
          "type": "uint256"
        },
        {
          "indexed": false,
          "internalType": "uint256",
          "name": "auctionEndTime",
          "type": "uint256"
        }
      ],
      "name": "AuctionStarted",
      "type": "event"
    },
    {
      "anonymous": false,
      "inputs": [
        {
          "indexed": false,
          "internalType": "uint256",
          "name": "_fromTokenId",
          "type": "uint256"
        },
        {
          "indexed": false,
          "internalType": "uint256",
          "name": "_toTokenId",
          "type": "uint256"
        }
      ],
      "name": "BatchMetadataUpdate",
      "type": "event"
    },
    {
      "anonymous": false,
      "inputs": [
        {
          "indexed": true,
          "internalType": "uint256",
          "name": "tokenId",
          "type": "uint256"
        },
        {
          "indexed": false,
          "internalType": "address",
          "name": "bidder",
          "type": "address"
        },
        {
          "indexed": false,
          "internalType": "uint256",
          "name": "amount",
          "type": "uint256"
        }
      ],
      "name": "BidPlaced",
      "type": "event"
    },
    {
      "anonymous": false,
      "inputs": [
        {
          "indexed": false,
          "internalType": "uint256",
          "name": "_tokenId",
          "type": "uint256"
        }
      ],
      "name": "MetadataUpdate",
      "type": "event"
    },
    {
      "anonymous": false,
      "inputs": [
        {
          "indexed": true,
          "internalType": "uint256",
          "name": "tokenId",
          "type": "uint256"
        },
        {
          "indexed": false,
          "internalType": "address",
          "name": "owner",
          "type": "address"
        },
        {
          "indexed": false,
          "internalType": "address",
          "name": "seller",
          "type": "address"
        },
        {
          "indexed": false,
          "internalType": "uint256",
          "name": "price",
          "type": "uint256"
        },
        {
          "indexed": false,
          "internalType": "bool",
          "name": "currentlyListed",
          "type": "bool"
        }
      ],
      "name": "TokenListedSuccess",
      "type": "event"
    },
    {
      "anonymous": false,
      "inputs": [
        {
          "indexed": true,
          "internalType": "address",
          "name": "from",
          "type": "address"
        },
        {
          "indexed": true,
          "internalType": "address",
          "name": "to",
          "type": "address"
        },
        {
          "indexed": true,
          "internalType": "uint256",
          "name": "tokenId",
          "type": "uint256"
        }
      ],
      "name": "Transfer",
      "type": "event"
    },
    {
      "inputs": [
        {
          "internalType": "uint256",
          "name": "",
          "type": "uint256"
        }
      ],
      "name": "allListedTokens",
      "outputs": [
        {
          "internalType": "uint256",
          "name": "",
          "type": "uint256"
        }
      ],
      "stateMutability": "view",
      "type": "function"
    },
    {
      "inputs": [
        {
          "internalType": "address",
          "name": "to",
          "type": "address"
        },
        {
          "internalType": "uint256",
          "name": "tokenId",
          "type": "uint256"
        }
      ],
      "name": "approve",
      "outputs": [],
      "stateMutability": "nonpayable",
      "type": "function"
    },
    {
      "inputs": [
        {
          "internalType": "address",
          "name": "owner",
          "type": "address"
        }
      ],
      "name": "balanceOf",
      "outputs": [
        {
          "internalType": "uint256",
          "name": "",
          "type": "uint256"
        }
      ],
      "stateMutability": "view",
      "type": "function"
    },
    {
      "inputs": [
        {
          "internalType": "string",
          "name": "tokenURI",
          "type": "string"
        }
      ],
      "name": "createToken",
      "outputs": [
        {
          "internalType": "uint256",
          "name": "",
          "type": "uint256"
        }
      ],
      "stateMutability": "payable",
      "type": "function"
    },
    {
      "inputs": [
        {
          "internalType": "uint256",
          "name": "tokenId",
          "type": "uint256"
        }
      ],
      "name": "endAuction",
      "outputs": [],
      "stateMutability": "nonpayable",
      "type": "function"
    },
    {
      "inputs": [
        {
          "internalType": "uint256",
          "name": "tokenId",
          "type": "uint256"
        }
      ],
      "name": "getAllBids",
      "outputs": [
        {
          "internalType": "address[]",
          "name": "",
          "type": "address[]"
        },
        {
          "internalType": "uint256[]",
          "name": "",
          "type": "uint256[]"
        },
        {
          "internalType": "uint256[]",
          "name": "",
          "type": "uint256[]"
        }
      ],
      "stateMutability": "view",
      "type": "function"
    },
    {
      "inputs": [],
      "name": "getAllListedNFTs",
      "outputs": [
        {
          "internalType": "uint256[]",
          "name": "",
          "type": "uint256[]"
        }
      ],
      "stateMutability": "view",
      "type": "function"
    },
    {
      "inputs": [
        {
          "internalType": "uint256",
          "name": "tokenId",
          "type": "uint256"
        }
      ],
      "name": "getApproved",
      "outputs": [
        {
          "internalType": "address",
          "name": "",
          "type": "address"
        }
      ],
      "stateMutability": "view",
      "type": "function"
    },
    {
      "inputs": [
        {
          "internalType": "uint256",
          "name": "tokenId",
          "type": "uint256"
        }
      ],
      "name": "getAuctionDetails",
      "outputs": [
        {
          "internalType": "uint256",
          "name": "",
          "type": "uint256"
        },
        {
          "internalType": "address",
          "name": "",
          "type": "address"
        },
        {
          "internalType": "uint256",
          "name": "",
          "type": "uint256"
        },
        {
          "internalType": "uint256",
          "name": "",
          "type": "uint256"
        },
        {
          "internalType": "address",
          "name": "",
          "type": "address"
        },
        {
          "internalType": "uint256",
          "name": "",
          "type": "uint256"
        },
        {
          "internalType": "bool",
          "name": "",
          "type": "bool"
        },
        {
          "components": [
            {
              "internalType": "address",
              "name": "bidder",
              "type": "address"
            },
            {
              "internalType": "uint256",
              "name": "amount",
              "type": "uint256"
            },
            {
              "internalType": "uint256",
              "name": "timestamp",
              "type": "uint256"
            }
          ],
          "internalType": "struct NFTMarketPlace.Bid[]",
          "name": "",
          "type": "tuple[]"
        }
      ],
      "stateMutability": "view",
      "type": "function"
    },
    {
      "inputs": [
        {
          "internalType": "uint256",
          "name": "tokenId",
          "type": "uint256"
        }
      ],
      "name": "getHighestBid",
      "outputs": [
        {
          "internalType": "uint256",
          "name": "",
          "type": "uint256"
        }
      ],
      "stateMutability": "view",
      "type": "function"
    },
    {
      "inputs": [
        {
          "internalType": "uint256",
          "name": "tokenId",
          "type": "uint256"
        }
      ],
      "name": "getListedTokenDetails",
      "outputs": [
        {
          "internalType": "uint256",
          "name": "",
          "type": "uint256"
        },
        {
          "internalType": "address",
          "name": "",
          "type": "address"
        },
        {
          "internalType": "address",
          "name": "",
          "type": "address"
        },
        {
          "internalType": "uint256",
          "name": "",
          "type": "uint256"
        },
        {
          "internalType": "bool",
          "name": "",
          "type": "bool"
        }
      ],
      "stateMutability": "view",
      "type": "function"
    },
    {
      "inputs": [],
      "name": "getMyListedToken",
      "outputs": [
        {
          "internalType": "uint256[]",
          "name": "",
          "type": "uint256[]"
        }
      ],
      "stateMutability": "view",
      "type": "function"
    },
    {
      "inputs": [],
      "name": "getMyUnlistedToken",
      "outputs": [
        {
          "internalType": "uint256[]",
          "name": "",
          "type": "uint256[]"
        }
      ],
      "stateMutability": "view",
      "type": "function"
    },
    {
      "inputs": [
        {
          "internalType": "address",
          "name": "owner",
          "type": "address"
        },
        {
          "internalType": "address",
          "name": "operator",
          "type": "address"
        }
      ],
      "name": "isApprovedForAll",
      "outputs": [
        {
          "internalType": "bool",
          "name": "",
          "type": "bool"
        }
      ],
      "stateMutability": "view",
      "type": "function"
    },
    {
      "inputs": [],
      "name": "listPrice",
      "outputs": [
        {
          "internalType": "uint256",
          "name": "",
          "type": "uint256"
        }
      ],
      "stateMutability": "view",
      "type": "function"
    },
    {
      "inputs": [
        {
          "internalType": "uint256",
          "name": "tokenId",
          "type": "uint256"
        },
        {
          "internalType": "uint256",
          "name": "price",
          "type": "uint256"
        }
      ],
      "name": "listToken",
      "outputs": [],
      "stateMutability": "payable",
      "type": "function"
    },
    {
      "inputs": [],
      "name": "name",
      "outputs": [
        {
          "internalType": "string",
          "name": "",
          "type": "string"
        }
      ],
      "stateMutability": "view",
      "type": "function"
    },
    {
      "inputs": [
        {
          "internalType": "uint256",
          "name": "tokenId",
          "type": "uint256"
        }
      ],
      "name": "ownerOf",
      "outputs": [
        {
          "internalType": "address",
          "name": "",
          "type": "address"
        }
      ],
      "stateMutability": "view",
      "type": "function"
    },
    {
      "inputs": [
        {
          "internalType": "uint256",
          "name": "tokenId",
          "type": "uint256"
        }
      ],
      "name": "placeBid",
      "outputs": [],
      "stateMutability": "payable",
      "type": "function"
    },
    {
      "inputs": [
        {
          "internalType": "uint256",
          "name": "tokenId",
          "type": "uint256"
        }
      ],
      "name": "purchaseToken",
      "outputs": [],
      "stateMutability": "payable",
      "type": "function"
    },
    {
      "inputs": [
        {
          "internalType": "address",
          "name": "from",
          "type": "address"
        },
        {
          "internalType": "address",
          "name": "to",
          "type": "address"
        },
        {
          "internalType": "uint256",
          "name": "tokenId",
          "type": "uint256"
        }
      ],
      "name": "safeTransferFrom",
      "outputs": [],
      "stateMutability": "nonpayable",
      "type": "function"
    },
    {
      "inputs": [
        {
          "internalType": "address",
          "name": "from",
          "type": "address"
        },
        {
          "internalType": "address",
          "name": "to",
          "type": "address"
        },
        {
          "internalType": "uint256",
          "name": "tokenId",
          "type": "uint256"
        },
        {
          "internalType": "bytes",
          "name": "data",
          "type": "bytes"
        }
      ],
      "name": "safeTransferFrom",
      "outputs": [],
      "stateMutability": "nonpayable",
      "type": "function"
    },
    {
      "inputs": [
        {
          "internalType": "address",
          "name": "operator",
          "type": "address"
        },
        {
          "internalType": "bool",
          "name": "approved",
          "type": "bool"
        }
      ],
      "name": "setApprovalForAll",
      "outputs": [],
      "stateMutability": "nonpayable",
      "type": "function"
    },
    {
      "inputs": [
        {
          "internalType": "uint256",
          "name": "tokenId",
          "type": "uint256"
        },
        {
          "internalType": "uint256",
          "name": "startPrice",
          "type": "uint256"
        },
        {
          "internalType": "uint256",
          "name": "duration",
          "type": "uint256"
        }
      ],
      "name": "startAuction",
      "outputs": [],
      "stateMutability": "nonpayable",
      "type": "function"
    },
    {
      "inputs": [
        {
          "internalType": "bytes4",
          "name": "interfaceId",
          "type": "bytes4"
        }
      ],
      "name": "supportsInterface",
      "outputs": [
        {
          "internalType": "bool",
          "name": "",
          "type": "bool"
        }
      ],
      "stateMutability": "view",
      "type": "function"
    },
    {
      "inputs": [],
      "name": "symbol",
      "outputs": [
        {
          "internalType": "string",
          "name": "",
          "type": "string"
        }
      ],
      "stateMutability": "view",
      "type": "function"
    },
    {
      "inputs": [
        {
          "internalType": "uint256",
          "name": "tokenId",
          "type": "uint256"
        }
      ],
      "name": "tokenURI",
      "outputs": [
        {
          "internalType": "string",
          "name": "",
          "type": "string"
        }
      ],
      "stateMutability": "view",
      "type": "function"
    },
    {
      "inputs": [
        {
          "internalType": "address",
          "name": "from",
          "type": "address"
        },
        {
          "internalType": "address",
          "name": "to",
          "type": "address"
        },
        {
          "internalType": "uint256",
          "name": "tokenId",
          "type": "uint256"
        }
      ],
      "name": "transferFrom",
      "outputs": [],
      "stateMutability": "nonpayable",
      "type": "function"
    },
    {
      "inputs": [
        {
          "internalType": "uint256",
          "name": "_listPrice",
          "type": "uint256"
        }
      ],
      "name": "updateListPrice",
      "outputs": [],
      "stateMutability": "payable",
      "type": "function"
    }
  ],
  "bytecode": "0x6080604052662386f26fc100006009553480156200001c57600080fd5b506040518060400160405280600e81526020017f4e46544d61726b6574706c6163650000000000000000000000000000000000008152506040518060400160405280600481526020017f4e46544d0000000000000000000000000000000000000000000000000000000081525081600090816200009a919062000370565b508060019081620000ac919062000370565b50505033600860006101000a81548173ffffffffffffffffffffffffffffffffffffffff021916908373ffffffffffffffffffffffffffffffffffffffff16021790555062000457565b600081519050919050565b7f4e487b7100000000000000000000000000000000000000000000000000000000600052604160045260246000fd5b7f4e487b7100000000000000000000000000000000000000000000000000000000600052602260045260246000fd5b600060028204905060018216806200017857607f821691505b6020821081036200018e576200018d62000130565b5b50919050565b60008190508160005260206000209050919050565b60006020601f8301049050919050565b600082821b905092915050565b600060088302620001f87fffffffffffffffffffffffffffffffffffffffffffffffffffffffffffffffff82620001b9565b620002048683620001b9565b95508019841693508086168417925050509392505050565b6000819050919050565b6000819050919050565b6000620002516200024b62000245846200021c565b62000226565b6200021c565b9050919050565b6000819050919050565b6200026d8362000230565b620002856200027c8262000258565b848454620001c6565b825550505050565b600090565b6200029c6200028d565b620002a981848462000262565b505050565b5b81811015620002d157620002c560008262000292565b600181019050620002af565b5050565b601f8211156200032057620002ea8162000194565b620002f584620001a9565b8101602085101562000305578190505b6200031d6200031485620001a9565b830182620002ae565b50505b505050565b600082821c905092915050565b6000620003456000198460080262000325565b1980831691505092915050565b600062000360838362000332565b9150826002028217905092915050565b6200037b82620000f6565b67ffffffffffffffff81111562000397576200039662000101565b5b620003a382546200015f565b620003b0828285620002d5565b600060209050601f831160018114620003e85760008415620003d3578287015190505b620003df858262000352565b8655506200044f565b601f198416620003f88662000194565b60005b828110156200042257848901518255600182019150602085019450602081019050620003fb565b868310156200044257848901516200043e601f89168262000332565b8355505b6001600288020188555050505b505050505050565b61506a80620004676000396000f3fe6080604052600436106101c25760003560e01c806391e078bb116100f7578063b9a2de3a11610095578063d436476211610064578063d43647621461064b578063e824af3e14610676578063e985e9c5146106b3578063f20e5e35146106f0576101c2565b8063b9a2de3a146105ad578063c2db2c42146105d6578063c322579c146105f2578063c87b56dd1461060e576101c2565b8063a22cb465116100d1578063a22cb465146104f1578063a528ff831461051a578063b1a0c57c14610559578063b88d4fde14610584576101c2565b806391e078bb1461048157806395d89b41146104aa5780639979ef45146104d5576101c2565b806345576f94116101645780636eb588d91161013e5780636eb588d9146103c057806370a08231146103eb57806375c1631d146104285780638f28864414610444576101c2565b806345576f94146103285780634b58ffaa146103585780636352211e14610383576101c2565b8063095ea7b3116101a0578063095ea7b31461026c578063147ba7031461029557806323b872dd146102d657806342842e0e146102ff576101c2565b806301ffc9a7146101c757806306fdde0314610204578063081812fc1461022f575b600080fd5b3480156101d357600080fd5b506101ee60048036038101906101e99190613970565b610734565b6040516101fb91906139b8565b60405180910390f35b34801561021057600080fd5b50610219610795565b6040516102269190613a63565b60405180910390f35b34801561023b57600080fd5b5061025660048036038101906102519190613abb565b610827565b6040516102639190613b29565b60405180910390f35b34801561027857600080fd5b50610293600480360381019061028e9190613b70565b610843565b005b3480156102a157600080fd5b506102bc60048036038101906102b79190613abb565b610859565b6040516102cd959493929190613bbf565b60405180910390f35b3480156102e257600080fd5b506102fd60048036038101906102f89190613c12565b6108f1565b005b34801561030b57600080fd5b5061032660048036038101906103219190613c12565b6109f3565b005b610342600480360381019061033d9190613d9a565b610a13565b60405161034f9190613de3565b60405180910390f35b34801561036457600080fd5b5061036d610ab7565b60405161037a9190613ebc565b60405180910390f35b34801561038f57600080fd5b506103aa60048036038101906103a59190613abb565b610b0f565b6040516103b79190613b29565b60405180910390f35b3480156103cc57600080fd5b506103d5610b21565b6040516103e29190613de3565b60405180910390f35b3480156103f757600080fd5b50610412600480360381019061040d9190613ede565b610b27565b60405161041f9190613de3565b60405180910390f35b610442600480360381019061043d9190613f0b565b610be1565b005b34801561045057600080fd5b5061046b60048036038101906104669190613abb565b611072565b6040516104789190613de3565b60405180910390f35b34801561048d57600080fd5b506104a860048036038101906104a39190613f4b565b611097565b005b3480156104b657600080fd5b506104bf611283565b6040516104cc9190613a63565b60405180910390f35b6104ef60048036038101906104ea9190613abb565b611315565b005b3480156104fd57600080fd5b5061051860048036038101906105139190613fca565b611668565b005b34801561052657600080fd5b50610541600480360381019061053c9190613abb565b61167e565b604051610550939291906140c8565b60405180910390f35b34801561056557600080fd5b5061056e6118de565b60405161057b9190613ebc565b60405180910390f35b34801561059057600080fd5b506105ab60048036038101906105a691906141b5565b61197c565b005b3480156105b957600080fd5b506105d460048036038101906105cf9190613abb565b611999565b005b6105f060048036038101906105eb9190613abb565b611d2d565b005b61060c60048036038101906106079190613abb565b611ed3565b005b34801561061a57600080fd5b5061063560048036038101906106309190613abb565b611f6d565b6040516106429190613a63565b60405180910390f35b34801561065757600080fd5b50610660612080565b60405161066d9190613ebc565b60405180910390f35b34801561068257600080fd5b5061069d60048036038101906106989190613abb565b61211e565b6040516106aa9190613de3565b60405180910390f35b3480156106bf57600080fd5b506106da60048036038101906106d59190614238565b612142565b6040516106e791906139b8565b60405180910390f35b3480156106fc57600080fd5b5061071760048036038101906107129190613abb565b6121d6565b60405161072b989796959493929190614369565b60405180910390f35b6000634906490660e01b7bffffffffffffffffffffffffffffffffffffffffffffffffffffffff1916827bffffffffffffffffffffffffffffffffffffffffffffffffffffffff1916148061078e575061078d8261234d565b5b9050919050565b6060600080546107a49061441d565b80601f01602080910402602001604051908101604052809291908181526020018280546107d09061441d565b801561081d5780601f106107f25761010080835404028352916020019161081d565b820191906000526020600020905b81548152906001019060200180831161080057829003601f168201915b5050505050905090565b60006108328261242f565b5061083c826124b7565b9050919050565b61085582826108506124f4565b6124fc565b5050565b600080600080600080600b6000888152602001908152602001600020905080600001548160010160009054906101000a900473ffffffffffffffffffffffffffffffffffffffff168260020160009054906101000a900473ffffffffffffffffffffffffffffffffffffffff1683600301548460040160009054906101000a900460ff16955095509550955095505091939590929450565b600073ffffffffffffffffffffffffffffffffffffffff168273ffffffffffffffffffffffffffffffffffffffff16036109635760006040517f64a0ae9200000000000000000000000000000000000000000000000000000000815260040161095a9190613b29565b60405180910390fd5b600061097783836109726124f4565b61250e565b90508373ffffffffffffffffffffffffffffffffffffffff168173ffffffffffffffffffffffffffffffffffffffff16146109ed578382826040517f64283d7b0000000000000000000000000000000000000000000000000000000081526004016109e49392919061444e565b60405180910390fd5b50505050565b610a0e8383836040518060200160405280600081525061197c565b505050565b600060076000815480929190610a28906144b4565b919050555060006007549050610a3e3382612728565b610a488184612746565b600c60003373ffffffffffffffffffffffffffffffffffffffff1673ffffffffffffffffffffffffffffffffffffffff16815260200190815260200160002081908060018154018082558091505060019003906000526020600020016000909190919091505580915050919050565b6060600a805480602002602001604051908101604052809291908181526020018280548015610b0557602002820191906000526020600020905b815481526020019060010190808311610af1575b5050505050905090565b6000610b1a8261242f565b9050919050565b60095481565b60008073ffffffffffffffffffffffffffffffffffffffff168273ffffffffffffffffffffffffffffffffffffffff1603610b9a5760006040517f89c62b64000000000000000000000000000000000000000000000000000000008152600401610b919190613b29565b60405180910390fd5b600360008373ffffffffffffffffffffffffffffffffffffffff1673ffffffffffffffffffffffffffffffffffffffff168152602001908152602001600020549050919050565b6000600c60003373ffffffffffffffffffffffffffffffffffffffff1673ffffffffffffffffffffffffffffffffffffffff1681526020019081526020016000208054905011610c66576040517f08c379a0000000000000000000000000000000000000000000000000000000008152600401610c5d90614548565b60405180910390fd5b6040518060a00160405280838152602001600073ffffffffffffffffffffffffffffffffffffffff1681526020013373ffffffffffffffffffffffffffffffffffffffff16815260200182815260200160011515815250600b60008481526020019081526020016000206000820151816000015560208201518160010160006101000a81548173ffffffffffffffffffffffffffffffffffffffff021916908373ffffffffffffffffffffffffffffffffffffffff16021790555060408201518160020160006101000a81548173ffffffffffffffffffffffffffffffffffffffff021916908373ffffffffffffffffffffffffffffffffffffffff1602179055506060820151816003015560808201518160040160006101000a81548160ff0219169083151502179055509050506000610e2e600c60003373ffffffffffffffffffffffffffffffffffffffff1673ffffffffffffffffffffffffffffffffffffffff168152602001908152602001600020805480602002602001604051908101604052809291908181526020018280548015610e2357602002820191906000526020600020905b815481526020019060010190808311610e0f575b5050505050846127a2565b9050600c60003373ffffffffffffffffffffffffffffffffffffffff1673ffffffffffffffffffffffffffffffffffffffff1681526020019081526020016000206001600c60003373ffffffffffffffffffffffffffffffffffffffff1673ffffffffffffffffffffffffffffffffffffffff16815260200190815260200160002080549050610ebe9190614568565b81548110610ecf57610ece61459c565b5b9060005260206000200154600c60003373ffffffffffffffffffffffffffffffffffffffff1673ffffffffffffffffffffffffffffffffffffffff1681526020019081526020016000208281548110610f2b57610f2a61459c565b5b9060005260206000200181905550600c60003373ffffffffffffffffffffffffffffffffffffffff1673ffffffffffffffffffffffffffffffffffffffff168152602001908152602001600020805480610f8857610f876145cb565b5b60019003818190600052602060002001600090559055600d60003373ffffffffffffffffffffffffffffffffffffffff1673ffffffffffffffffffffffffffffffffffffffff168152602001908152602001600020839080600181540180825580915050600190039060005260206000200160009091909190915055600a839080600181540180825580915050600190039060005260206000200160009091909190915055827f9339409317fd01fabff48b703019016f49159bacc801ae872d2ca637d226e4c060003385600160405161106594939291906145fa565b60405180910390a2505050565b600080600e600084815260200190815260200160002090508060030154915050919050565b3373ffffffffffffffffffffffffffffffffffffffff166110b784610b0f565b73ffffffffffffffffffffffffffffffffffffffff161461110d576040517f08c379a00000000000000000000000000000000000000000000000000000000081526004016111049061468b565b60405180910390fd5b60008211611150576040517f08c379a00000000000000000000000000000000000000000000000000000000081526004016111479061471d565b60405180910390fd5b6000814261115e919061473d565b90506000600e60008681526020019081526020016000209050848160000181905550338160010160006101000a81548173ffffffffffffffffffffffffffffffffffffffff021916908373ffffffffffffffffffffffffffffffffffffffff1602179055508381600201819055506000816003018190555060008160040160006101000a81548173ffffffffffffffffffffffffffffffffffffffff021916908373ffffffffffffffffffffffffffffffffffffffff16021790555081816005018190555060018160060160006101000a81548160ff021916908315150217905550847fbf6dc7bdf2f23af5a506fe03ee1221f47d023a2227fbc949c6b812ae44534e6d33868560405161127493929190614771565b60405180910390a25050505050565b6060600180546112929061441d565b80601f01602080910402602001604051908101604052809291908181526020018280546112be9061441d565b801561130b5780601f106112e05761010080835404028352916020019161130b565b820191906000526020600020905b8154815290600101906020018083116112ee57829003601f168201915b5050505050905090565b6000600e600083815260200190815260200160002090508060060160009054906101000a900460ff1661137d576040517f08c379a0000000000000000000000000000000000000000000000000000000008152600401611374906147f4565b60405180910390fd5b806003015434116113c3576040517f08c379a00000000000000000000000000000000000000000000000000000000081526004016113ba90614886565b60405180910390fd5b8060010160009054906101000a900473ffffffffffffffffffffffffffffffffffffffff1673ffffffffffffffffffffffffffffffffffffffff163373ffffffffffffffffffffffffffffffffffffffff1603611455576040517f08c379a000000000000000000000000000000000000000000000000000000000815260040161144c90614918565b60405180910390fd5b600073ffffffffffffffffffffffffffffffffffffffff168160040160009054906101000a900473ffffffffffffffffffffffffffffffffffffffff1673ffffffffffffffffffffffffffffffffffffffff161461151d578060040160009054906101000a900473ffffffffffffffffffffffffffffffffffffffff1673ffffffffffffffffffffffffffffffffffffffff166108fc82600301549081150290604051600060405180830381858888f1935050505015801561151b573d6000803e3d6000fd5b505b600060405180606001604052803373ffffffffffffffffffffffffffffffffffffffff1681526020013481526020014281525090508160070181908060018154018082558091505060019003906000526020600020906003020160009091909190915060008201518160000160006101000a81548173ffffffffffffffffffffffffffffffffffffffff021916908373ffffffffffffffffffffffffffffffffffffffff16021790555060208201518160010155604082015181600201555050348260030181905550338260040160006101000a81548173ffffffffffffffffffffffffffffffffffffffff021916908373ffffffffffffffffffffffffffffffffffffffff160217905550827f0e54eff26401bf69b81b26f60bd85ef47f5d85275c1d268d84f68d6897431c47333460405161165b929190614938565b60405180910390a2505050565b61167a6116736124f4565b83836127f6565b5050565b60608060606000600e6000868152602001908152602001600020905060008160070180549050905060008167ffffffffffffffff8111156116c2576116c1613c6f565b5b6040519080825280602002602001820160405280156116f05781602001602082028036833780820191505090505b50905060008267ffffffffffffffff81111561170f5761170e613c6f565b5b60405190808252806020026020018201604052801561173d5781602001602082028036833780820191505090505b50905060008367ffffffffffffffff81111561175c5761175b613c6f565b5b60405190808252806020026020018201604052801561178a5781602001602082028036833780820191505090505b50905060005b848110156118c8578560070181815481106117ae576117ad61459c565b5b906000526020600020906003020160000160009054906101000a900473ffffffffffffffffffffffffffffffffffffffff168482815181106117f3576117f261459c565b5b602002602001019073ffffffffffffffffffffffffffffffffffffffff16908173ffffffffffffffffffffffffffffffffffffffff16815250508560070181815481106118435761184261459c565b5b9060005260206000209060030201600101548382815181106118685761186761459c565b5b60200260200101818152505085600701818154811061188a5761188961459c565b5b9060005260206000209060030201600201548282815181106118af576118ae61459c565b5b6020026020010181815250508080600101915050611790565b5082828297509750975050505050509193909250565b60606118e933612965565b600d60003373ffffffffffffffffffffffffffffffffffffffff1673ffffffffffffffffffffffffffffffffffffffff16815260200190815260200160002080548060200260200160405190810160405280929190818152602001828054801561197257602002820191906000526020600020905b81548152602001906001019080831161195e575b5050505050905090565b6119878484846108f1565b611993848484846129fe565b50505050565b6000600e600083815260200190815260200160002090508060060160009054906101000a900460ff16611a01576040517f08c379a00000000000000000000000000000000000000000000000000000000081526004016119f8906147f4565b60405180910390fd5b8060050154421015611a48576040517f08c379a0000000000000000000000000000000000000000000000000000000008152600401611a3f906149ad565b60405180910390fd5b8060010160009054906101000a900473ffffffffffffffffffffffffffffffffffffffff1673ffffffffffffffffffffffffffffffffffffffff163373ffffffffffffffffffffffffffffffffffffffff1614611ada576040517f08c379a0000000000000000000000000000000000000000000000000000000008152600401611ad190614a3f565b60405180910390fd5b600073ffffffffffffffffffffffffffffffffffffffff168160040160009054906101000a900473ffffffffffffffffffffffffffffffffffffffff1673ffffffffffffffffffffffffffffffffffffffff1614611c2357611b858160010160009054906101000a900473ffffffffffffffffffffffffffffffffffffffff168260040160009054906101000a900473ffffffffffffffffffffffffffffffffffffffff1684612bb5565b8060010160009054906101000a900473ffffffffffffffffffffffffffffffffffffffff1673ffffffffffffffffffffffffffffffffffffffff166108fc82600301549081150290604051600060405180830381858888f19350505050158015611bf3573d6000803e3d6000fd5b50611c228160040160009054906101000a900473ffffffffffffffffffffffffffffffffffffffff1683612d22565b5b60008160060160006101000a81548160ff021916908315150217905550611c6e828260010160009054906101000a900473ffffffffffffffffffffffffffffffffffffffff16612d8c565b611c7782613070565b8060040160009054906101000a900473ffffffffffffffffffffffffffffffffffffffff1673ffffffffffffffffffffffffffffffffffffffff168160010160009054906101000a900473ffffffffffffffffffffffffffffffffffffffff1673ffffffffffffffffffffffffffffffffffffffff16837f1569802994a84674f75331b5081a75eefaac9d79eb336ae1544ed0aae49cb9388460030154604051611d219190613de3565b60405180910390a45050565b6000600b600083815260200190815260200160002090508060040160009054906101000a900460ff16611d95576040517f08c379a0000000000000000000000000000000000000000000000000000000008152600401611d8c90614ad1565b60405180910390fd5b8060030154341015611ddc576040517f08c379a0000000000000000000000000000000000000000000000000000000008152600401611dd390614b63565b60405180910390fd5b611e0b8160020160009054906101000a900473ffffffffffffffffffffffffffffffffffffffff163384612bb5565b8060020160009054906101000a900473ffffffffffffffffffffffffffffffffffffffff1673ffffffffffffffffffffffffffffffffffffffff166108fc82600301549081150290604051600060405180830381858888f19350505050158015611e79573d6000803e3d6000fd5b5060008160040160006101000a81548160ff021916908315150217905550611ec5828260020160009054906101000a900473ffffffffffffffffffffffffffffffffffffffff16612d8c565b611ecf3383612d22565b5050565b3373ffffffffffffffffffffffffffffffffffffffff16600860009054906101000a900473ffffffffffffffffffffffffffffffffffffffff1673ffffffffffffffffffffffffffffffffffffffff1614611f63576040517f08c379a0000000000000000000000000000000000000000000000000000000008152600401611f5a90614bf5565b60405180910390fd5b8060098190555050565b6060611f788261242f565b506000600660008481526020019081526020016000208054611f999061441d565b80601f0160208091040260200160405190810160405280929190818152602001828054611fc59061441d565b80156120125780601f10611fe757610100808354040283529160200191612012565b820191906000526020600020905b815481529060010190602001808311611ff557829003601f168201915b50505050509050600061202361309b565b9050600081510361203857819250505061207b565b60008251111561206d578082604051602001612055929190614c51565b6040516020818303038152906040529250505061207b565b612076846130b2565b925050505b919050565b606061208b33612965565b600c60003373ffffffffffffffffffffffffffffffffffffffff1673ffffffffffffffffffffffffffffffffffffffff16815260200190815260200160002080548060200260200160405190810160405280929190818152602001828054801561211457602002820191906000526020600020905b815481526020019060010190808311612100575b5050505050905090565b600a818154811061212e57600080fd5b906000526020600020016000915090505481565b6000600560008473ffffffffffffffffffffffffffffffffffffffff1673ffffffffffffffffffffffffffffffffffffffff16815260200190815260200160002060008373ffffffffffffffffffffffffffffffffffffffff1673ffffffffffffffffffffffffffffffffffffffff16815260200190815260200160002060009054906101000a900460ff16905092915050565b600080600080600080600060606000600e60008b8152602001908152602001600020905080600001548160010160009054906101000a900473ffffffffffffffffffffffffffffffffffffffff16826002015483600301548460040160009054906101000a900473ffffffffffffffffffffffffffffffffffffffff1685600501548660060160009054906101000a900460ff168760070180805480602002602001604051908101604052809291908181526020016000905b8282101561232b57838290600052602060002090600302016040518060600160405290816000820160009054906101000a900473ffffffffffffffffffffffffffffffffffffffff1673ffffffffffffffffffffffffffffffffffffffff1673ffffffffffffffffffffffffffffffffffffffff168152602001600182015481526020016002820154815250508152602001906001019061228f565b5050505090509850985098509850985098509850985050919395975091939597565b60007f80ac58cd000000000000000000000000000000000000000000000000000000007bffffffffffffffffffffffffffffffffffffffffffffffffffffffff1916827bffffffffffffffffffffffffffffffffffffffffffffffffffffffff1916148061241857507f5b5e139f000000000000000000000000000000000000000000000000000000007bffffffffffffffffffffffffffffffffffffffffffffffffffffffff1916827bffffffffffffffffffffffffffffffffffffffffffffffffffffffff1916145b8061242857506124278261311b565b5b9050919050565b60008061243b83613185565b9050600073ffffffffffffffffffffffffffffffffffffffff168173ffffffffffffffffffffffffffffffffffffffff16036124ae57826040517f7e2732890000000000000000000000000000000000000000000000000000000081526004016124a59190613de3565b60405180910390fd5b80915050919050565b60006004600083815260200190815260200160002060009054906101000a900473ffffffffffffffffffffffffffffffffffffffff169050919050565b600033905090565b61250983838360016131c2565b505050565b60008061251a84613185565b9050600073ffffffffffffffffffffffffffffffffffffffff168373ffffffffffffffffffffffffffffffffffffffff161461255c5761255b818486613387565b5b600073ffffffffffffffffffffffffffffffffffffffff168173ffffffffffffffffffffffffffffffffffffffff16146125ed5761259e6000856000806131c2565b6001600360008373ffffffffffffffffffffffffffffffffffffffff1673ffffffffffffffffffffffffffffffffffffffff168152602001908152602001600020600082825403925050819055505b600073ffffffffffffffffffffffffffffffffffffffff168573ffffffffffffffffffffffffffffffffffffffff1614612670576001600360008773ffffffffffffffffffffffffffffffffffffffff1673ffffffffffffffffffffffffffffffffffffffff168152602001908152602001600020600082825401925050819055505b846002600086815260200190815260200160002060006101000a81548173ffffffffffffffffffffffffffffffffffffffff021916908373ffffffffffffffffffffffffffffffffffffffff160217905550838573ffffffffffffffffffffffffffffffffffffffff168273ffffffffffffffffffffffffffffffffffffffff167fddf252ad1be2c89b69c2b068fc378daa952ba7f163c4a11628f55a4df523b3ef60405160405180910390a4809150509392505050565b61274282826040518060200160405280600081525061344b565b5050565b806006600084815260200190815260200160002090816127669190614e21565b507ff8e1a15aba9398e019f0b49df1a4fde98ee17ae345cb5f6b5e2c27f5033e8ce7826040516127969190613de3565b60405180910390a15050565b600080600090505b83518110156127ea57828482815181106127c7576127c661459c565b5b6020026020010151036127dd57809150506127f0565b80806001019150506127aa565b50825190505b92915050565b600073ffffffffffffffffffffffffffffffffffffffff168273ffffffffffffffffffffffffffffffffffffffff160361286757816040517f5b08ba1800000000000000000000000000000000000000000000000000000000815260040161285e9190613b29565b60405180910390fd5b80600560008573ffffffffffffffffffffffffffffffffffffffff1673ffffffffffffffffffffffffffffffffffffffff16815260200190815260200160002060008473ffffffffffffffffffffffffffffffffffffffff1673ffffffffffffffffffffffffffffffffffffffff16815260200190815260200160002060006101000a81548160ff0219169083151502179055508173ffffffffffffffffffffffffffffffffffffffff168373ffffffffffffffffffffffffffffffffffffffff167f17307eab39ab6107e8899845ad3d59bd9653f200f220920489ca2b5937696c318360405161295891906139b8565b60405180910390a3505050565b6129fb816040516024016129799190613b29565b6040516020818303038152906040527f2c2ecbc2000000000000000000000000000000000000000000000000000000007bffffffffffffffffffffffffffffffffffffffffffffffffffffffff19166020820180517bffffffffffffffffffffffffffffffffffffffffffffffffffffffff8381831617835250505050613467565b50565b60008373ffffffffffffffffffffffffffffffffffffffff163b1115612baf578273ffffffffffffffffffffffffffffffffffffffff1663150b7a02612a426124f4565b8685856040518563ffffffff1660e01b8152600401612a649493929190614f48565b6020604051808303816000875af1925050508015612aa057506040513d601f19601f82011682018060405250810190612a9d9190614fa9565b60015b612b24573d8060008114612ad0576040519150601f19603f3d011682016040523d82523d6000602084013e612ad5565b606091505b506000815103612b1c57836040517f64a0ae92000000000000000000000000000000000000000000000000000000008152600401612b139190613b29565b60405180910390fd5b805181602001fd5b63150b7a0260e01b7bffffffffffffffffffffffffffffffffffffffffffffffffffffffff1916817bffffffffffffffffffffffffffffffffffffffffffffffffffffffff191614612bad57836040517f64a0ae92000000000000000000000000000000000000000000000000000000008152600401612ba49190613b29565b60405180910390fd5b505b50505050565b600073ffffffffffffffffffffffffffffffffffffffff168273ffffffffffffffffffffffffffffffffffffffff1603612c275760006040517f64a0ae92000000000000000000000000000000000000000000000000000000008152600401612c1e9190613b29565b60405180910390fd5b6000612c358383600061250e565b9050600073ffffffffffffffffffffffffffffffffffffffff168173ffffffffffffffffffffffffffffffffffffffff1603612ca857816040517f7e273289000000000000000000000000000000000000000000000000000000008152600401612c9f9190613de3565b60405180910390fd5b8373ffffffffffffffffffffffffffffffffffffffff168173ffffffffffffffffffffffffffffffffffffffff1614612d1c578382826040517f64283d7b000000000000000000000000000000000000000000000000000000008152600401612d139392919061444e565b60405180910390fd5b50505050565b600c60008373ffffffffffffffffffffffffffffffffffffffff1673ffffffffffffffffffffffffffffffffffffffff1681526020019081526020016000208190806001815401808255809150506001900390600052602060002001600090919091909150555050565b6000612e25600d60008473ffffffffffffffffffffffffffffffffffffffff1673ffffffffffffffffffffffffffffffffffffffff168152602001908152602001600020805480602002602001604051908101604052809291908181526020018280548015612e1a57602002820191906000526020600020905b815481526020019060010190808311612e06575b5050505050846127a2565b9050600d60008373ffffffffffffffffffffffffffffffffffffffff1673ffffffffffffffffffffffffffffffffffffffff1681526020019081526020016000206001600d60008573ffffffffffffffffffffffffffffffffffffffff1673ffffffffffffffffffffffffffffffffffffffff16815260200190815260200160002080549050612eb59190614568565b81548110612ec657612ec561459c565b5b9060005260206000200154600d60008473ffffffffffffffffffffffffffffffffffffffff1673ffffffffffffffffffffffffffffffffffffffff1681526020019081526020016000208281548110612f2257612f2161459c565b5b9060005260206000200181905550600d60008373ffffffffffffffffffffffffffffffffffffffff1673ffffffffffffffffffffffffffffffffffffffff168152602001908152602001600020805480612f7f57612f7e6145cb565b5b60019003818190600052602060002001600090559055612fef600a805480602002602001604051908101604052809291908181526020018280548015612fe457602002820191906000526020600020905b815481526020019060010190808311612fd0575b5050505050846127a2565b9050600a6001600a805490506130059190614568565b815481106130165761301561459c565b5b9060005260206000200154600a82815481106130355761303461459c565b5b9060005260206000200181905550600a805480613055576130546145cb565b5b60019003818190600052602060002001600090559055505050565b6000600e600083815260200190815260200160002090508060070160006130979190613888565b5050565b606060405180602001604052806000815250905090565b60606130bd8261242f565b5060006130c861309b565b905060008151116130e85760405180602001604052806000815250613113565b806130f284613481565b604051602001613103929190614c51565b6040516020818303038152906040525b915050919050565b60007f01ffc9a7000000000000000000000000000000000000000000000000000000007bffffffffffffffffffffffffffffffffffffffffffffffffffffffff1916827bffffffffffffffffffffffffffffffffffffffffffffffffffffffff1916149050919050565b60006002600083815260200190815260200160002060009054906101000a900473ffffffffffffffffffffffffffffffffffffffff169050919050565b80806131fb5750600073ffffffffffffffffffffffffffffffffffffffff168273ffffffffffffffffffffffffffffffffffffffff1614155b1561332f57600061320b8461242f565b9050600073ffffffffffffffffffffffffffffffffffffffff168373ffffffffffffffffffffffffffffffffffffffff161415801561327657508273ffffffffffffffffffffffffffffffffffffffff168173ffffffffffffffffffffffffffffffffffffffff1614155b801561328957506132878184612142565b155b156132cb57826040517fa9fbf51f0000000000000000000000000000000000000000000000000000000081526004016132c29190613b29565b60405180910390fd5b811561332d57838573ffffffffffffffffffffffffffffffffffffffff168273ffffffffffffffffffffffffffffffffffffffff167f8c5be1e5ebec7d5bd14f71427d1e84f3dd0314c0f7b2291e5b200ac8c7c3b92560405160405180910390a45b505b836004600085815260200190815260200160002060006101000a81548173ffffffffffffffffffffffffffffffffffffffff021916908373ffffffffffffffffffffffffffffffffffffffff16021790555050505050565b61339283838361354f565b61344657600073ffffffffffffffffffffffffffffffffffffffff168373ffffffffffffffffffffffffffffffffffffffff160361340757806040517f7e2732890000000000000000000000000000000000000000000000000000000081526004016133fe9190613de3565b60405180910390fd5b81816040517f177e802f00000000000000000000000000000000000000000000000000000000815260040161343d929190614938565b60405180910390fd5b505050565b6134558383613610565b61346260008484846129fe565b505050565b61347e8161347661370961372a565b63ffffffff16565b50565b60606000600161349084613735565b01905060008167ffffffffffffffff8111156134af576134ae613c6f565b5b6040519080825280601f01601f1916602001820160405280156134e15781602001600182028036833780820191505090505b509050600082602001820190505b600115613544578080600190039150507f3031323334353637383961626364656600000000000000000000000000000000600a86061a8153600a858161353857613537614fd6565b5b049450600085036134ef575b819350505050919050565b60008073ffffffffffffffffffffffffffffffffffffffff168373ffffffffffffffffffffffffffffffffffffffff161415801561360757508273ffffffffffffffffffffffffffffffffffffffff168473ffffffffffffffffffffffffffffffffffffffff1614806135c857506135c78484612142565b5b8061360657508273ffffffffffffffffffffffffffffffffffffffff166135ee836124b7565b73ffffffffffffffffffffffffffffffffffffffff16145b5b90509392505050565b600073ffffffffffffffffffffffffffffffffffffffff168273ffffffffffffffffffffffffffffffffffffffff16036136825760006040517f64a0ae920000000000000000000000000000000000000000000000000000000081526004016136799190613b29565b60405180910390fd5b60006136908383600061250e565b9050600073ffffffffffffffffffffffffffffffffffffffff168173ffffffffffffffffffffffffffffffffffffffff16146137045760006040517f73c6ac6e0000000000000000000000000000000000000000000000000000000081526004016136fb9190613b29565b60405180910390fd5b505050565b60006a636f6e736f6c652e6c6f679050600080835160208501845afa505050565b6138ac819050919050565b600080600090507a184f03e93ff9f4daa797ed6e38ed64bf6a1f0100000000000000008310613793577a184f03e93ff9f4daa797ed6e38ed64bf6a1f010000000000000000838161378957613788614fd6565b5b0492506040810190505b6d04ee2d6d415b85acef810000000083106137d0576d04ee2d6d415b85acef810000000083816137c6576137c5614fd6565b5b0492506020810190505b662386f26fc1000083106137ff57662386f26fc1000083816137f5576137f4614fd6565b5b0492506010810190505b6305f5e1008310613828576305f5e100838161381e5761381d614fd6565b5b0492506008810190505b612710831061384d57612710838161384357613842614fd6565b5b0492506004810190505b60648310613870576064838161386657613865614fd6565b5b0492506002810190505b600a831061387f576001810190505b80915050919050565b50805460008255600302906000526020600020908101906138a991906138b6565b50565b6138b4615005565b565b5b8082111561390057600080820160006101000a81549073ffffffffffffffffffffffffffffffffffffffff021916905560018201600090556002820160009055506003016138b7565b5090565b6000604051905090565b600080fd5b600080fd5b60007fffffffff0000000000000000000000000000000000000000000000000000000082169050919050565b61394d81613918565b811461395857600080fd5b50565b60008135905061396a81613944565b92915050565b6000602082840312156139865761398561390e565b5b60006139948482850161395b565b91505092915050565b60008115159050919050565b6139b28161399d565b82525050565b60006020820190506139cd60008301846139a9565b92915050565b600081519050919050565b600082825260208201905092915050565b60005b83811015613a0d5780820151818401526020810190506139f2565b60008484015250505050565b6000601f19601f8301169050919050565b6000613a35826139d3565b613a3f81856139de565b9350613a4f8185602086016139ef565b613a5881613a19565b840191505092915050565b60006020820190508181036000830152613a7d8184613a2a565b905092915050565b6000819050919050565b613a9881613a85565b8114613aa357600080fd5b50565b600081359050613ab581613a8f565b92915050565b600060208284031215613ad157613ad061390e565b5b6000613adf84828501613aa6565b91505092915050565b600073ffffffffffffffffffffffffffffffffffffffff82169050919050565b6000613b1382613ae8565b9050919050565b613b2381613b08565b82525050565b6000602082019050613b3e6000830184613b1a565b92915050565b613b4d81613b08565b8114613b5857600080fd5b50565b600081359050613b6a81613b44565b92915050565b60008060408385031215613b8757613b8661390e565b5b6000613b9585828601613b5b565b9250506020613ba685828601613aa6565b9150509250929050565b613bb981613a85565b82525050565b600060a082019050613bd46000830188613bb0565b613be16020830187613b1a565b613bee6040830186613b1a565b613bfb6060830185613bb0565b613c0860808301846139a9565b9695505050505050565b600080600060608486031215613c2b57613c2a61390e565b5b6000613c3986828701613b5b565b9350506020613c4a86828701613b5b565b9250506040613c5b86828701613aa6565b9150509250925092565b600080fd5b600080fd5b7f4e487b7100000000000000000000000000000000000000000000000000000000600052604160045260246000fd5b613ca782613a19565b810181811067ffffffffffffffff82111715613cc657613cc5613c6f565b5b80604052505050565b6000613cd9613904565b9050613ce58282613c9e565b919050565b600067ffffffffffffffff821115613d0557613d04613c6f565b5b613d0e82613a19565b9050602081019050919050565b82818337600083830152505050565b6000613d3d613d3884613cea565b613ccf565b905082815260208101848484011115613d5957613d58613c6a565b5b613d64848285613d1b565b509392505050565b600082601f830112613d8157613d80613c65565b5b8135613d91848260208601613d2a565b91505092915050565b600060208284031215613db057613daf61390e565b5b600082013567ffffffffffffffff811115613dce57613dcd613913565b5b613dda84828501613d6c565b91505092915050565b6000602082019050613df86000830184613bb0565b92915050565b600081519050919050565b600082825260208201905092915050565b6000819050602082019050919050565b613e3381613a85565b82525050565b6000613e458383613e2a565b60208301905092915050565b6000602082019050919050565b6000613e6982613dfe565b613e738185613e09565b9350613e7e83613e1a565b8060005b83811015613eaf578151613e968882613e39565b9750613ea183613e51565b925050600181019050613e82565b5085935050505092915050565b60006020820190508181036000830152613ed68184613e5e565b905092915050565b600060208284031215613ef457613ef361390e565b5b6000613f0284828501613b5b565b91505092915050565b60008060408385031215613f2257613f2161390e565b5b6000613f3085828601613aa6565b9250506020613f4185828601613aa6565b9150509250929050565b600080600060608486031215613f6457613f6361390e565b5b6000613f7286828701613aa6565b9350506020613f8386828701613aa6565b9250506040613f9486828701613aa6565b9150509250925092565b613fa78161399d565b8114613fb257600080fd5b50565b600081359050613fc481613f9e565b92915050565b60008060408385031215613fe157613fe061390e565b5b6000613fef85828601613b5b565b925050602061400085828601613fb5565b9150509250929050565b600081519050919050565b600082825260208201905092915050565b6000819050602082019050919050565b61403f81613b08565b82525050565b60006140518383614036565b60208301905092915050565b6000602082019050919050565b60006140758261400a565b61407f8185614015565b935061408a83614026565b8060005b838110156140bb5781516140a28882614045565b97506140ad8361405d565b92505060018101905061408e565b5085935050505092915050565b600060608201905081810360008301526140e2818661406a565b905081810360208301526140f68185613e5e565b9050818103604083015261410a8184613e5e565b9050949350505050565b600067ffffffffffffffff82111561412f5761412e613c6f565b5b61413882613a19565b9050602081019050919050565b600061415861415384614114565b613ccf565b90508281526020810184848401111561417457614173613c6a565b5b61417f848285613d1b565b509392505050565b600082601f83011261419c5761419b613c65565b5b81356141ac848260208601614145565b91505092915050565b600080600080608085870312156141cf576141ce61390e565b5b60006141dd87828801613b5b565b94505060206141ee87828801613b5b565b93505060406141ff87828801613aa6565b925050606085013567ffffffffffffffff8111156142205761421f613913565b5b61422c87828801614187565b91505092959194509250565b6000806040838503121561424f5761424e61390e565b5b600061425d85828601613b5b565b925050602061426e85828601613b5b565b9150509250929050565b600081519050919050565b600082825260208201905092915050565b6000819050602082019050919050565b6060820160008201516142ba6000850182614036565b5060208201516142cd6020850182613e2a565b5060408201516142e06040850182613e2a565b50505050565b60006142f283836142a4565b60608301905092915050565b6000602082019050919050565b600061431682614278565b6143208185614283565b935061432b83614294565b8060005b8381101561435c57815161434388826142e6565b975061434e836142fe565b92505060018101905061432f565b5085935050505092915050565b60006101008201905061437f600083018b613bb0565b61438c602083018a613b1a565b6143996040830189613bb0565b6143a66060830188613bb0565b6143b36080830187613b1a565b6143c060a0830186613bb0565b6143cd60c08301856139a9565b81810360e08301526143df818461430b565b90509998505050505050505050565b7f4e487b7100000000000000000000000000000000000000000000000000000000600052602260045260246000fd5b6000600282049050600182168061443557607f821691505b602082108103614448576144476143ee565b5b50919050565b60006060820190506144636000830186613b1a565b6144706020830185613bb0565b61447d6040830184613b1a565b949350505050565b7f4e487b7100000000000000000000000000000000000000000000000000000000600052601160045260246000fd5b60006144bf82613a85565b91507fffffffffffffffffffffffffffffffffffffffffffffffffffffffffffffffff82036144f1576144f0614485565b5b600182019050919050565b7f596f7520646f6e2774206f776e20616e7920746f6b656e732e00000000000000600082015250565b60006145326019836139de565b915061453d826144fc565b602082019050919050565b6000602082019050818103600083015261456181614525565b9050919050565b600061457382613a85565b915061457e83613a85565b925082820390508181111561459657614595614485565b5b92915050565b7f4e487b7100000000000000000000000000000000000000000000000000000000600052603260045260246000fd5b7f4e487b7100000000000000000000000000000000000000000000000000000000600052603160045260246000fd5b600060808201905061460f6000830187613b1a565b61461c6020830186613b1a565b6146296040830185613bb0565b61463660608301846139a9565b95945050505050565b7f596f7520646f6e2774206f776e207468697320746f6b656e2e00000000000000600082015250565b60006146756019836139de565b91506146808261463f565b602082019050919050565b600060208201905081810360008301526146a481614668565b9050919050565b7f5374617274207072696365206d7573742062652067726561746572207468616e60008201527f207a65726f2e0000000000000000000000000000000000000000000000000000602082015250565b60006147076026836139de565b9150614712826146ab565b604082019050919050565b60006020820190508181036000830152614736816146fa565b9050919050565b600061474882613a85565b915061475383613a85565b925082820190508082111561476b5761476a614485565b5b92915050565b60006060820190506147866000830186613b1a565b6147936020830185613bb0565b6147a06040830184613bb0565b949350505050565b7f41756374696f6e206e6f74206163746976652e00000000000000000000000000600082015250565b60006147de6013836139de565b91506147e9826147a8565b602082019050919050565b6000602082019050818103600083015261480d816147d1565b9050919050565b7f426964206d75737420626520686967686572207468616e2063757272656e742060008201527f68696768657374206269642e0000000000000000000000000000000000000000602082015250565b6000614870602c836139de565b915061487b82614814565b604082019050919050565b6000602082019050818103600083015261489f81614863565b9050919050565b7f596f752063616e6e6f7420626964206f6e20796f7572206f776e20617563746960008201527f6f6e2e0000000000000000000000000000000000000000000000000000000000602082015250565b60006149026023836139de565b915061490d826148a6565b604082019050919050565b60006020820190508181036000830152614931816148f5565b9050919050565b600060408201905061494d6000830185613b1a565b61495a6020830184613bb0565b9392505050565b7f41756374696f6e206e6f7420656e646564207965742e00000000000000000000600082015250565b60006149976016836139de565b91506149a282614961565b602082019050919050565b600060208201905081810360008301526149c68161498a565b9050919050565b7f4f6e6c792061756374696f6e206f776e65722063616e20656e6420746865206160008201527f756374696f6e0000000000000000000000000000000000000000000000000000602082015250565b6000614a296026836139de565b9150614a34826149cd565b604082019050919050565b60006020820190508181036000830152614a5881614a1c565b9050919050565b7f546f6b656e206973206e6f742063757272656e746c79206c697374656420666f60008201527f722073616c652e00000000000000000000000000000000000000000000000000602082015250565b6000614abb6027836139de565b9150614ac682614a5f565b604082019050919050565b60006020820190508181036000830152614aea81614aae565b9050919050565b7f496e73756666696369656e742066756e647320746f207075726368617365207460008201527f686520746f6b656e2e0000000000000000000000000000000000000000000000602082015250565b6000614b4d6029836139de565b9150614b5882614af1565b604082019050919050565b60006020820190508181036000830152614b7c81614b40565b9050919050565b7f4f6e6c79206f776e65722063616e20757064617465206c697374696e6720707260008201527f6963650000000000000000000000000000000000000000000000000000000000602082015250565b6000614bdf6023836139de565b9150614bea82614b83565b604082019050919050565b60006020820190508181036000830152614c0e81614bd2565b9050919050565b600081905092915050565b6000614c2b826139d3565b614c358185614c15565b9350614c458185602086016139ef565b80840191505092915050565b6000614c5d8285614c20565b9150614c698284614c20565b91508190509392505050565b60008190508160005260206000209050919050565b60006020601f8301049050919050565b600082821b905092915050565b600060088302614cd77fffffffffffffffffffffffffffffffffffffffffffffffffffffffffffffffff82614c9a565b614ce18683614c9a565b95508019841693508086168417925050509392505050565b6000819050919050565b6000614d1e614d19614d1484613a85565b614cf9565b613a85565b9050919050565b6000819050919050565b614d3883614d03565b614d4c614d4482614d25565b848454614ca7565b825550505050565b600090565b614d61614d54565b614d6c818484614d2f565b505050565b5b81811015614d9057614d85600082614d59565b600181019050614d72565b5050565b601f821115614dd557614da681614c75565b614daf84614c8a565b81016020851015614dbe578190505b614dd2614dca85614c8a565b830182614d71565b50505b505050565b600082821c905092915050565b6000614df860001984600802614dda565b1980831691505092915050565b6000614e118383614de7565b9150826002028217905092915050565b614e2a826139d3565b67ffffffffffffffff811115614e4357614e42613c6f565b5b614e4d825461441d565b614e58828285614d94565b600060209050601f831160018114614e8b5760008415614e79578287015190505b614e838582614e05565b865550614eeb565b601f198416614e9986614c75565b60005b82811015614ec157848901518255600182019150602085019450602081019050614e9c565b86831015614ede5784890151614eda601f891682614de7565b8355505b6001600288020188555050505b505050505050565b600081519050919050565b600082825260208201905092915050565b6000614f1a82614ef3565b614f248185614efe565b9350614f348185602086016139ef565b614f3d81613a19565b840191505092915050565b6000608082019050614f5d6000830187613b1a565b614f6a6020830186613b1a565b614f776040830185613bb0565b8181036060830152614f898184614f0f565b905095945050505050565b600081519050614fa381613944565b92915050565b600060208284031215614fbf57614fbe61390e565b5b6000614fcd84828501614f94565b91505092915050565b7f4e487b7100000000000000000000000000000000000000000000000000000000600052601260045260246000fd5b7f4e487b7100000000000000000000000000000000000000000000000000000000600052605160045260246000fdfea2646970667358221220bbca325852fb4499bc45fd91c9bac34d0b3bae946d2e7f25ab03202b759a3de164736f6c63430008180033",
  "linkReferences": {},
  "deployedLinkReferences": {}
}